{
	"contracts/19_Error.sol": {
		"Error": {
			"abi": [
				{
					"inputs": [
						{
							"internalType": "uint256",
							"name": "balance",
							"type": "uint256"
						},
						{
							"internalType": "uint256",
							"name": "withdrawAmount",
							"type": "uint256"
						}
					],
					"name": "InsufficientBalance",
					"type": "error"
				},
				{
					"inputs": [
						{
							"internalType": "uint256",
							"name": "i",
							"type": "uint256"
						}
					],
					"name": "testAssert",
					"outputs": [],
					"stateMutability": "pure",
					"type": "function"
				},
				{
					"inputs": [
						{
							"internalType": "uint256",
							"name": "_withdrawAmount",
							"type": "uint256"
						}
					],
					"name": "testCustomError",
					"outputs": [],
					"stateMutability": "view",
					"type": "function"
				},
				{
					"inputs": [
						{
							"internalType": "uint256",
							"name": "x",
							"type": "uint256"
						}
					],
					"name": "testRequire",
					"outputs": [],
					"stateMutability": "pure",
					"type": "function"
				},
				{
					"inputs": [
						{
							"internalType": "uint256",
							"name": "_i",
							"type": "uint256"
						}
					],
					"name": "testRevert",
					"outputs": [],
					"stateMutability": "pure",
					"type": "function"
				}
			],
			"devdoc": {
				"kind": "dev",
				"methods": {},
				"version": 1
			},
			"evm": {
				"assembly": "    /* \"contracts/19_Error.sol\":74:1256  contract Error {... */\n  mstore(0x40, 0x80)\n  callvalue\n  dup1\n  iszero\n  tag_1\n  jumpi\n  0x00\n  dup1\n  revert\ntag_1:\n  pop\n  dataSize(sub_0)\n  dup1\n  dataOffset(sub_0)\n  0x00\n  codecopy\n  0x00\n  return\nstop\n\nsub_0: assembly {\n        /* \"contracts/19_Error.sol\":74:1256  contract Error {... */\n      mstore(0x40, 0x80)\n      callvalue\n      dup1\n      iszero\n      tag_1\n      jumpi\n      0x00\n      dup1\n      revert\n    tag_1:\n      pop\n      jumpi(tag_2, lt(calldatasize, 0x04))\n      shr(0xe0, calldataload(0x00))\n      dup1\n      0x20987767\n      eq\n      tag_3\n      jumpi\n      dup1\n      0x246ce3f9\n      eq\n      tag_4\n      jumpi\n      dup1\n      0x75f7286c\n      eq\n      tag_5\n      jumpi\n      dup1\n      0xb8bd717f\n      eq\n      tag_6\n      jumpi\n    tag_2:\n      0x00\n      dup1\n      revert\n        /* \"contracts/19_Error.sol\":218:498  function testRevert(uint256 _i) public pure {... */\n    tag_3:\n      tag_7\n      0x04\n      dup1\n      calldatasize\n      sub\n      dup2\n      add\n      swap1\n      tag_8\n      swap2\n      swap1\n      tag_9\n      jump\t// in\n    tag_8:\n      tag_10\n      jump\t// in\n    tag_7:\n      stop\n        /* \"contracts/19_Error.sol\":506:845  function testAssert(uint256 i) public pure {... */\n    tag_4:\n      tag_11\n      0x04\n      dup1\n      calldatasize\n      sub\n      dup2\n      add\n      swap1\n      tag_12\n      swap2\n      swap1\n      tag_9\n      jump\t// in\n    tag_12:\n      tag_13\n      jump\t// in\n    tag_11:\n      stop\n        /* \"contracts/19_Error.sol\":949:1253  function testCustomError(uint256 _withdrawAmount) public view {... */\n    tag_5:\n      tag_14\n      0x04\n      dup1\n      calldatasize\n      sub\n      dup2\n      add\n      swap1\n      tag_15\n      swap2\n      swap1\n      tag_9\n      jump\t// in\n    tag_15:\n      tag_16\n      jump\t// in\n    tag_14:\n      stop\n        /* \"contracts/19_Error.sol\":98:210  function testRequire (uint256 x) public pure {... */\n    tag_6:\n      tag_17\n      0x04\n      dup1\n      calldatasize\n      sub\n      dup2\n      add\n      swap1\n      tag_18\n      swap2\n      swap1\n      tag_9\n      jump\t// in\n    tag_18:\n      tag_19\n      jump\t// in\n    tag_17:\n      stop\n        /* \"contracts/19_Error.sol\":218:498  function testRevert(uint256 _i) public pure {... */\n    tag_10:\n        /* \"contracts/19_Error.sol\":421:423  10 */\n      0x0a\n        /* \"contracts/19_Error.sol\":415:417  _i */\n      dup2\n        /* \"contracts/19_Error.sol\":415:423  _i <= 10 */\n      gt\n        /* \"contracts/19_Error.sol\":411:491  if (_i <= 10) {... */\n      tag_21\n      jumpi\n        /* \"contracts/19_Error.sol\":440:479  revert(\"Input must be greater than 10\") */\n      mload(0x40)\n      0x08c379a000000000000000000000000000000000000000000000000000000000\n      dup2\n      mstore\n      0x04\n      add\n      tag_22\n      swap1\n      tag_23\n      jump\t// in\n    tag_22:\n      mload(0x40)\n      dup1\n      swap2\n      sub\n      swap1\n      revert\n        /* \"contracts/19_Error.sol\":411:491  if (_i <= 10) {... */\n    tag_21:\n        /* \"contracts/19_Error.sol\":218:498  function testRevert(uint256 _i) public pure {... */\n      pop\n      jump\t// out\n        /* \"contracts/19_Error.sol\":506:845  function testAssert(uint256 i) public pure {... */\n    tag_13:\n        /* \"contracts/19_Error.sol\":834:836  10 */\n      0x0a\n        /* \"contracts/19_Error.sol\":829:830  i */\n      dup2\n        /* \"contracts/19_Error.sol\":829:836  i == 10 */\n      eq\n        /* \"contracts/19_Error.sol\":822:837  assert(i == 10) */\n      tag_25\n      jumpi\n      tag_26\n      tag_27\n      jump\t// in\n    tag_26:\n    tag_25:\n        /* \"contracts/19_Error.sol\":506:845  function testAssert(uint256 i) public pure {... */\n      pop\n      jump\t// out\n        /* \"contracts/19_Error.sol\":949:1253  function testCustomError(uint256 _withdrawAmount) public view {... */\n    tag_16:\n        /* \"contracts/19_Error.sol\":1022:1033  uint256 bal */\n      0x00\n        /* \"contracts/19_Error.sol\":1036:1057  address(this).balance */\n      selfbalance\n        /* \"contracts/19_Error.sol\":1022:1057  uint256 bal = address(this).balance */\n      swap1\n      pop\n        /* \"contracts/19_Error.sol\":1078:1093  _withdrawAmount */\n      dup2\n        /* \"contracts/19_Error.sol\":1072:1075  bal */\n      dup2\n        /* \"contracts/19_Error.sol\":1072:1093  bal < _withdrawAmount */\n      lt\n        /* \"contracts/19_Error.sol\":1068:1246  if (bal < _withdrawAmount) {... */\n      iszero\n      tag_29\n      jumpi\n        /* \"contracts/19_Error.sol\":1165:1168  bal */\n      dup1\n        /* \"contracts/19_Error.sol\":1203:1218  _withdrawAmount */\n      dup3\n        /* \"contracts/19_Error.sol\":1117:1234  InsufficientBalance({... */\n      mload(0x40)\n      0xcf47918100000000000000000000000000000000000000000000000000000000\n      dup2\n      mstore\n      0x04\n      add\n      tag_30\n      swap3\n      swap2\n      swap1\n      tag_31\n      jump\t// in\n    tag_30:\n      mload(0x40)\n      dup1\n      swap2\n      sub\n      swap1\n      revert\n        /* \"contracts/19_Error.sol\":1068:1246  if (bal < _withdrawAmount) {... */\n    tag_29:\n        /* \"contracts/19_Error.sol\":1011:1253  {... */\n      pop\n        /* \"contracts/19_Error.sol\":949:1253  function testCustomError(uint256 _withdrawAmount) public view {... */\n      pop\n      jump\t// out\n        /* \"contracts/19_Error.sol\":98:210  function testRequire (uint256 x) public pure {... */\n    tag_19:\n        /* \"contracts/19_Error.sol\":166:168  10 */\n      0x0a\n        /* \"contracts/19_Error.sol\":162:163  x */\n      dup2\n        /* \"contracts/19_Error.sol\":162:168  x > 10 */\n      gt\n        /* \"contracts/19_Error.sol\":154:202  require(x > 10, 'input must be greater than 10') */\n      tag_33\n      jumpi\n      mload(0x40)\n      0x08c379a000000000000000000000000000000000000000000000000000000000\n      dup2\n      mstore\n      0x04\n      add\n      tag_34\n      swap1\n      tag_35\n      jump\t// in\n    tag_34:\n      mload(0x40)\n      dup1\n      swap2\n      sub\n      swap1\n      revert\n    tag_33:\n        /* \"contracts/19_Error.sol\":98:210  function testRequire (uint256 x) public pure {... */\n      pop\n      jump\t// out\n        /* \"#utility.yul\":88:205   */\n    tag_37:\n        /* \"#utility.yul\":197:198   */\n      0x00\n        /* \"#utility.yul\":194:195   */\n      dup1\n        /* \"#utility.yul\":187:199   */\n      revert\n        /* \"#utility.yul\":334:411   */\n    tag_39:\n        /* \"#utility.yul\":371:378   */\n      0x00\n        /* \"#utility.yul\":400:405   */\n      dup2\n        /* \"#utility.yul\":389:405   */\n      swap1\n      pop\n        /* \"#utility.yul\":334:411   */\n      swap2\n      swap1\n      pop\n      jump\t// out\n        /* \"#utility.yul\":417:539   */\n    tag_40:\n        /* \"#utility.yul\":490:514   */\n      tag_54\n        /* \"#utility.yul\":508:513   */\n      dup2\n        /* \"#utility.yul\":490:514   */\n      tag_39\n      jump\t// in\n    tag_54:\n        /* \"#utility.yul\":483:488   */\n      dup2\n        /* \"#utility.yul\":480:515   */\n      eq\n        /* \"#utility.yul\":470:533   */\n      tag_55\n      jumpi\n        /* \"#utility.yul\":529:530   */\n      0x00\n        /* \"#utility.yul\":526:527   */\n      dup1\n        /* \"#utility.yul\":519:531   */\n      revert\n        /* \"#utility.yul\":470:533   */\n    tag_55:\n        /* \"#utility.yul\":417:539   */\n      pop\n      jump\t// out\n        /* \"#utility.yul\":545:684   */\n    tag_41:\n        /* \"#utility.yul\":591:596   */\n      0x00\n        /* \"#utility.yul\":629:635   */\n      dup2\n        /* \"#utility.yul\":616:636   */\n      calldataload\n        /* \"#utility.yul\":607:636   */\n      swap1\n      pop\n        /* \"#utility.yul\":645:678   */\n      tag_57\n        /* \"#utility.yul\":672:677   */\n      dup2\n        /* \"#utility.yul\":645:678   */\n      tag_40\n      jump\t// in\n    tag_57:\n        /* \"#utility.yul\":545:684   */\n      swap3\n      swap2\n      pop\n      pop\n      jump\t// out\n        /* \"#utility.yul\":690:1019   */\n    tag_9:\n        /* \"#utility.yul\":749:755   */\n      0x00\n        /* \"#utility.yul\":798:800   */\n      0x20\n        /* \"#utility.yul\":786:795   */\n      dup3\n        /* \"#utility.yul\":777:784   */\n      dup5\n        /* \"#utility.yul\":773:796   */\n      sub\n        /* \"#utility.yul\":769:801   */\n      slt\n        /* \"#utility.yul\":766:885   */\n      iszero\n      tag_59\n      jumpi\n        /* \"#utility.yul\":804:883   */\n      tag_60\n      tag_37\n      jump\t// in\n    tag_60:\n        /* \"#utility.yul\":766:885   */\n    tag_59:\n        /* \"#utility.yul\":924:925   */\n      0x00\n        /* \"#utility.yul\":949:1002   */\n      tag_61\n        /* \"#utility.yul\":994:1001   */\n      dup5\n        /* \"#utility.yul\":985:991   */\n      dup3\n        /* \"#utility.yul\":974:983   */\n      dup6\n        /* \"#utility.yul\":970:992   */\n      add\n        /* \"#utility.yul\":949:1002   */\n      tag_41\n      jump\t// in\n    tag_61:\n        /* \"#utility.yul\":939:1002   */\n      swap2\n      pop\n        /* \"#utility.yul\":895:1012   */\n      pop\n        /* \"#utility.yul\":690:1019   */\n      swap3\n      swap2\n      pop\n      pop\n      jump\t// out\n        /* \"#utility.yul\":1025:1194   */\n    tag_42:\n        /* \"#utility.yul\":1109:1120   */\n      0x00\n        /* \"#utility.yul\":1143:1149   */\n      dup3\n        /* \"#utility.yul\":1138:1141   */\n      dup3\n        /* \"#utility.yul\":1131:1150   */\n      mstore\n        /* \"#utility.yul\":1183:1187   */\n      0x20\n        /* \"#utility.yul\":1178:1181   */\n      dup3\n        /* \"#utility.yul\":1174:1188   */\n      add\n        /* \"#utility.yul\":1159:1188   */\n      swap1\n      pop\n        /* \"#utility.yul\":1025:1194   */\n      swap3\n      swap2\n      pop\n      pop\n      jump\t// out\n        /* \"#utility.yul\":1200:1379   */\n    tag_43:\n        /* \"#utility.yul\":1340:1371   */\n      0x496e707574206d7573742062652067726561746572207468616e203130000000\n        /* \"#utility.yul\":1336:1337   */\n      0x00\n        /* \"#utility.yul\":1328:1334   */\n      dup3\n        /* \"#utility.yul\":1324:1338   */\n      add\n        /* \"#utility.yul\":1317:1372   */\n      mstore\n        /* \"#utility.yul\":1200:1379   */\n      pop\n      jump\t// out\n        /* \"#utility.yul\":1385:1751   */\n    tag_44:\n        /* \"#utility.yul\":1527:1530   */\n      0x00\n        /* \"#utility.yul\":1548:1615   */\n      tag_65\n        /* \"#utility.yul\":1612:1614   */\n      0x1d\n        /* \"#utility.yul\":1607:1610   */\n      dup4\n        /* \"#utility.yul\":1548:1615   */\n      tag_42\n      jump\t// in\n    tag_65:\n        /* \"#utility.yul\":1541:1615   */\n      swap2\n      pop\n        /* \"#utility.yul\":1624:1717   */\n      tag_66\n        /* \"#utility.yul\":1713:1716   */\n      dup3\n        /* \"#utility.yul\":1624:1717   */\n      tag_43\n      jump\t// in\n    tag_66:\n        /* \"#utility.yul\":1742:1744   */\n      0x20\n        /* \"#utility.yul\":1737:1740   */\n      dup3\n        /* \"#utility.yul\":1733:1745   */\n      add\n        /* \"#utility.yul\":1726:1745   */\n      swap1\n      pop\n        /* \"#utility.yul\":1385:1751   */\n      swap2\n      swap1\n      pop\n      jump\t// out\n        /* \"#utility.yul\":1757:2176   */\n    tag_23:\n        /* \"#utility.yul\":1923:1927   */\n      0x00\n        /* \"#utility.yul\":1961:1963   */\n      0x20\n        /* \"#utility.yul\":1950:1959   */\n      dup3\n        /* \"#utility.yul\":1946:1964   */\n      add\n        /* \"#utility.yul\":1938:1964   */\n      swap1\n      pop\n        /* \"#utility.yul\":2010:2019   */\n      dup2\n        /* \"#utility.yul\":2004:2008   */\n      dup2\n        /* \"#utility.yul\":2000:2020   */\n      sub\n        /* \"#utility.yul\":1996:1997   */\n      0x00\n        /* \"#utility.yul\":1985:1994   */\n      dup4\n        /* \"#utility.yul\":1981:1998   */\n      add\n        /* \"#utility.yul\":1974:2021   */\n      mstore\n        /* \"#utility.yul\":2038:2169   */\n      tag_68\n        /* \"#utility.yul\":2164:2168   */\n      dup2\n        /* \"#utility.yul\":2038:2169   */\n      tag_44\n      jump\t// in\n    tag_68:\n        /* \"#utility.yul\":2030:2169   */\n      swap1\n      pop\n        /* \"#utility.yul\":1757:2176   */\n      swap2\n      swap1\n      pop\n      jump\t// out\n        /* \"#utility.yul\":2182:2362   */\n    tag_27:\n        /* \"#utility.yul\":2230:2307   */\n      0x4e487b7100000000000000000000000000000000000000000000000000000000\n        /* \"#utility.yul\":2227:2228   */\n      0x00\n        /* \"#utility.yul\":2220:2308   */\n      mstore\n        /* \"#utility.yul\":2327:2331   */\n      0x01\n        /* \"#utility.yul\":2324:2325   */\n      0x04\n        /* \"#utility.yul\":2317:2332   */\n      mstore\n        /* \"#utility.yul\":2351:2355   */\n      0x24\n        /* \"#utility.yul\":2348:2349   */\n      0x00\n        /* \"#utility.yul\":2341:2356   */\n      revert\n        /* \"#utility.yul\":2368:2486   */\n    tag_45:\n        /* \"#utility.yul\":2455:2479   */\n      tag_71\n        /* \"#utility.yul\":2473:2478   */\n      dup2\n        /* \"#utility.yul\":2455:2479   */\n      tag_39\n      jump\t// in\n    tag_71:\n        /* \"#utility.yul\":2450:2453   */\n      dup3\n        /* \"#utility.yul\":2443:2480   */\n      mstore\n        /* \"#utility.yul\":2368:2486   */\n      pop\n      pop\n      jump\t// out\n        /* \"#utility.yul\":2492:2824   */\n    tag_31:\n        /* \"#utility.yul\":2613:2617   */\n      0x00\n        /* \"#utility.yul\":2651:2653   */\n      0x40\n        /* \"#utility.yul\":2640:2649   */\n      dup3\n        /* \"#utility.yul\":2636:2654   */\n      add\n        /* \"#utility.yul\":2628:2654   */\n      swap1\n      pop\n        /* \"#utility.yul\":2664:2735   */\n      tag_73\n        /* \"#utility.yul\":2732:2733   */\n      0x00\n        /* \"#utility.yul\":2721:2730   */\n      dup4\n        /* \"#utility.yul\":2717:2734   */\n      add\n        /* \"#utility.yul\":2708:2714   */\n      dup6\n        /* \"#utility.yul\":2664:2735   */\n      tag_45\n      jump\t// in\n    tag_73:\n        /* \"#utility.yul\":2745:2817   */\n      tag_74\n        /* \"#utility.yul\":2813:2815   */\n      0x20\n        /* \"#utility.yul\":2802:2811   */\n      dup4\n        /* \"#utility.yul\":2798:2816   */\n      add\n        /* \"#utility.yul\":2789:2795   */\n      dup5\n        /* \"#utility.yul\":2745:2817   */\n      tag_45\n      jump\t// in\n    tag_74:\n        /* \"#utility.yul\":2492:2824   */\n      swap4\n      swap3\n      pop\n      pop\n      pop\n      jump\t// out\n        /* \"#utility.yul\":2830:3009   */\n    tag_46:\n        /* \"#utility.yul\":2970:3001   */\n      0x696e707574206d7573742062652067726561746572207468616e203130000000\n        /* \"#utility.yul\":2966:2967   */\n      0x00\n        /* \"#utility.yul\":2958:2964   */\n      dup3\n        /* \"#utility.yul\":2954:2968   */\n      add\n        /* \"#utility.yul\":2947:3002   */\n      mstore\n        /* \"#utility.yul\":2830:3009   */\n      pop\n      jump\t// out\n        /* \"#utility.yul\":3015:3381   */\n    tag_47:\n        /* \"#utility.yul\":3157:3160   */\n      0x00\n        /* \"#utility.yul\":3178:3245   */\n      tag_77\n        /* \"#utility.yul\":3242:3244   */\n      0x1d\n        /* \"#utility.yul\":3237:3240   */\n      dup4\n        /* \"#utility.yul\":3178:3245   */\n      tag_42\n      jump\t// in\n    tag_77:\n        /* \"#utility.yul\":3171:3245   */\n      swap2\n      pop\n        /* \"#utility.yul\":3254:3347   */\n      tag_78\n        /* \"#utility.yul\":3343:3346   */\n      dup3\n        /* \"#utility.yul\":3254:3347   */\n      tag_46\n      jump\t// in\n    tag_78:\n        /* \"#utility.yul\":3372:3374   */\n      0x20\n        /* \"#utility.yul\":3367:3370   */\n      dup3\n        /* \"#utility.yul\":3363:3375   */\n      add\n        /* \"#utility.yul\":3356:3375   */\n      swap1\n      pop\n        /* \"#utility.yul\":3015:3381   */\n      swap2\n      swap1\n      pop\n      jump\t// out\n        /* \"#utility.yul\":3387:3806   */\n    tag_35:\n        /* \"#utility.yul\":3553:3557   */\n      0x00\n        /* \"#utility.yul\":3591:3593   */\n      0x20\n        /* \"#utility.yul\":3580:3589   */\n      dup3\n        /* \"#utility.yul\":3576:3594   */\n      add\n        /* \"#utility.yul\":3568:3594   */\n      swap1\n      pop\n        /* \"#utility.yul\":3640:3649   */\n      dup2\n        /* \"#utility.yul\":3634:3638   */\n      dup2\n        /* \"#utility.yul\":3630:3650   */\n      sub\n        /* \"#utility.yul\":3626:3627   */\n      0x00\n        /* \"#utility.yul\":3615:3624   */\n      dup4\n        /* \"#utility.yul\":3611:3628   */\n      add\n        /* \"#utility.yul\":3604:3651   */\n      mstore\n        /* \"#utility.yul\":3668:3799   */\n      tag_80\n        /* \"#utility.yul\":3794:3798   */\n      dup2\n        /* \"#utility.yul\":3668:3799   */\n      tag_47\n      jump\t// in\n    tag_80:\n        /* \"#utility.yul\":3660:3799   */\n      swap1\n      pop\n        /* \"#utility.yul\":3387:3806   */\n      swap2\n      swap1\n      pop\n      jump\t// out\n\n    auxdata: 0xa2646970667358221220481f6794e35b147373db03d6a0767a28e9a625444658c2759956cd2109c1d8c064736f6c63430008160033\n}\n",
				"bytecode": {
					"linkReferences": {},
					"object": "608060405234801561000f575f80fd5b506103888061001d5f395ff3fe608060405234801561000f575f80fd5b506004361061004a575f3560e01c8063209877671461004e578063246ce3f91461006a57806375f7286c14610086578063b8bd717f146100a2575b5f80fd5b610068600480360381019061006391906101e4565b6100be565b005b610084600480360381019061007f91906101e4565b610104565b005b6100a0600480360381019061009b91906101e4565b610118565b005b6100bc60048036038101906100b791906101e4565b610167565b005b600a8111610101576040517f08c379a00000000000000000000000000000000000000000000000000000000081526004016100f890610269565b60405180910390fd5b50565b600a811461011557610114610287565b5b50565b5f479050818110156101635780826040517fcf47918100000000000000000000000000000000000000000000000000000000815260040161015a9291906102c3565b60405180910390fd5b5050565b600a81116101aa576040517f08c379a00000000000000000000000000000000000000000000000000000000081526004016101a190610334565b60405180910390fd5b50565b5f80fd5b5f819050919050565b6101c3816101b1565b81146101cd575f80fd5b50565b5f813590506101de816101ba565b92915050565b5f602082840312156101f9576101f86101ad565b5b5f610206848285016101d0565b91505092915050565b5f82825260208201905092915050565b7f496e707574206d7573742062652067726561746572207468616e2031300000005f82015250565b5f610253601d8361020f565b915061025e8261021f565b602082019050919050565b5f6020820190508181035f83015261028081610247565b9050919050565b7f4e487b71000000000000000000000000000000000000000000000000000000005f52600160045260245ffd5b6102bd816101b1565b82525050565b5f6040820190506102d65f8301856102b4565b6102e360208301846102b4565b9392505050565b7f696e707574206d7573742062652067726561746572207468616e2031300000005f82015250565b5f61031e601d8361020f565b9150610329826102ea565b602082019050919050565b5f6020820190508181035f83015261034b81610312565b905091905056fea2646970667358221220481f6794e35b147373db03d6a0767a28e9a625444658c2759956cd2109c1d8c064736f6c63430008160033",
					"opcodes": "PUSH1 0x80 PUSH1 0x40 MSTORE CALLVALUE DUP1 ISZERO PUSH2 0xF JUMPI PUSH0 DUP1 REVERT JUMPDEST POP PUSH2 0x388 DUP1 PUSH2 0x1D PUSH0 CODECOPY PUSH0 RETURN INVALID PUSH1 0x80 PUSH1 0x40 MSTORE CALLVALUE DUP1 ISZERO PUSH2 0xF JUMPI PUSH0 DUP1 REVERT JUMPDEST POP PUSH1 0x4 CALLDATASIZE LT PUSH2 0x4A JUMPI PUSH0 CALLDATALOAD PUSH1 0xE0 SHR DUP1 PUSH4 0x20987767 EQ PUSH2 0x4E JUMPI DUP1 PUSH4 0x246CE3F9 EQ PUSH2 0x6A JUMPI DUP1 PUSH4 0x75F7286C EQ PUSH2 0x86 JUMPI DUP1 PUSH4 0xB8BD717F EQ PUSH2 0xA2 JUMPI JUMPDEST PUSH0 DUP1 REVERT JUMPDEST PUSH2 0x68 PUSH1 0x4 DUP1 CALLDATASIZE SUB DUP2 ADD SWAP1 PUSH2 0x63 SWAP2 SWAP1 PUSH2 0x1E4 JUMP JUMPDEST PUSH2 0xBE JUMP JUMPDEST STOP JUMPDEST PUSH2 0x84 PUSH1 0x4 DUP1 CALLDATASIZE SUB DUP2 ADD SWAP1 PUSH2 0x7F SWAP2 SWAP1 PUSH2 0x1E4 JUMP JUMPDEST PUSH2 0x104 JUMP JUMPDEST STOP JUMPDEST PUSH2 0xA0 PUSH1 0x4 DUP1 CALLDATASIZE SUB DUP2 ADD SWAP1 PUSH2 0x9B SWAP2 SWAP1 PUSH2 0x1E4 JUMP JUMPDEST PUSH2 0x118 JUMP JUMPDEST STOP JUMPDEST PUSH2 0xBC PUSH1 0x4 DUP1 CALLDATASIZE SUB DUP2 ADD SWAP1 PUSH2 0xB7 SWAP2 SWAP1 PUSH2 0x1E4 JUMP JUMPDEST PUSH2 0x167 JUMP JUMPDEST STOP JUMPDEST PUSH1 0xA DUP2 GT PUSH2 0x101 JUMPI PUSH1 0x40 MLOAD PUSH32 0x8C379A000000000000000000000000000000000000000000000000000000000 DUP2 MSTORE PUSH1 0x4 ADD PUSH2 0xF8 SWAP1 PUSH2 0x269 JUMP JUMPDEST PUSH1 0x40 MLOAD DUP1 SWAP2 SUB SWAP1 REVERT JUMPDEST POP JUMP JUMPDEST PUSH1 0xA DUP2 EQ PUSH2 0x115 JUMPI PUSH2 0x114 PUSH2 0x287 JUMP JUMPDEST JUMPDEST POP JUMP JUMPDEST PUSH0 SELFBALANCE SWAP1 POP DUP2 DUP2 LT ISZERO PUSH2 0x163 JUMPI DUP1 DUP3 PUSH1 0x40 MLOAD PUSH32 0xCF47918100000000000000000000000000000000000000000000000000000000 DUP2 MSTORE PUSH1 0x4 ADD PUSH2 0x15A SWAP3 SWAP2 SWAP1 PUSH2 0x2C3 JUMP JUMPDEST PUSH1 0x40 MLOAD DUP1 SWAP2 SUB SWAP1 REVERT JUMPDEST POP POP JUMP JUMPDEST PUSH1 0xA DUP2 GT PUSH2 0x1AA JUMPI PUSH1 0x40 MLOAD PUSH32 0x8C379A000000000000000000000000000000000000000000000000000000000 DUP2 MSTORE PUSH1 0x4 ADD PUSH2 0x1A1 SWAP1 PUSH2 0x334 JUMP JUMPDEST PUSH1 0x40 MLOAD DUP1 SWAP2 SUB SWAP1 REVERT JUMPDEST POP JUMP JUMPDEST PUSH0 DUP1 REVERT JUMPDEST PUSH0 DUP2 SWAP1 POP SWAP2 SWAP1 POP JUMP JUMPDEST PUSH2 0x1C3 DUP2 PUSH2 0x1B1 JUMP JUMPDEST DUP2 EQ PUSH2 0x1CD JUMPI PUSH0 DUP1 REVERT JUMPDEST POP JUMP JUMPDEST PUSH0 DUP2 CALLDATALOAD SWAP1 POP PUSH2 0x1DE DUP2 PUSH2 0x1BA JUMP JUMPDEST SWAP3 SWAP2 POP POP JUMP JUMPDEST PUSH0 PUSH1 0x20 DUP3 DUP5 SUB SLT ISZERO PUSH2 0x1F9 JUMPI PUSH2 0x1F8 PUSH2 0x1AD JUMP JUMPDEST JUMPDEST PUSH0 PUSH2 0x206 DUP5 DUP3 DUP6 ADD PUSH2 0x1D0 JUMP JUMPDEST SWAP2 POP POP SWAP3 SWAP2 POP POP JUMP JUMPDEST PUSH0 DUP3 DUP3 MSTORE PUSH1 0x20 DUP3 ADD SWAP1 POP SWAP3 SWAP2 POP POP JUMP JUMPDEST PUSH32 0x496E707574206D7573742062652067726561746572207468616E203130000000 PUSH0 DUP3 ADD MSTORE POP JUMP JUMPDEST PUSH0 PUSH2 0x253 PUSH1 0x1D DUP4 PUSH2 0x20F JUMP JUMPDEST SWAP2 POP PUSH2 0x25E DUP3 PUSH2 0x21F JUMP JUMPDEST PUSH1 0x20 DUP3 ADD SWAP1 POP SWAP2 SWAP1 POP JUMP JUMPDEST PUSH0 PUSH1 0x20 DUP3 ADD SWAP1 POP DUP2 DUP2 SUB PUSH0 DUP4 ADD MSTORE PUSH2 0x280 DUP2 PUSH2 0x247 JUMP JUMPDEST SWAP1 POP SWAP2 SWAP1 POP JUMP JUMPDEST PUSH32 0x4E487B7100000000000000000000000000000000000000000000000000000000 PUSH0 MSTORE PUSH1 0x1 PUSH1 0x4 MSTORE PUSH1 0x24 PUSH0 REVERT JUMPDEST PUSH2 0x2BD DUP2 PUSH2 0x1B1 JUMP JUMPDEST DUP3 MSTORE POP POP JUMP JUMPDEST PUSH0 PUSH1 0x40 DUP3 ADD SWAP1 POP PUSH2 0x2D6 PUSH0 DUP4 ADD DUP6 PUSH2 0x2B4 JUMP JUMPDEST PUSH2 0x2E3 PUSH1 0x20 DUP4 ADD DUP5 PUSH2 0x2B4 JUMP JUMPDEST SWAP4 SWAP3 POP POP POP JUMP JUMPDEST PUSH32 0x696E707574206D7573742062652067726561746572207468616E203130000000 PUSH0 DUP3 ADD MSTORE POP JUMP JUMPDEST PUSH0 PUSH2 0x31E PUSH1 0x1D DUP4 PUSH2 0x20F JUMP JUMPDEST SWAP2 POP PUSH2 0x329 DUP3 PUSH2 0x2EA JUMP JUMPDEST PUSH1 0x20 DUP3 ADD SWAP1 POP SWAP2 SWAP1 POP JUMP JUMPDEST PUSH0 PUSH1 0x20 DUP3 ADD SWAP1 POP DUP2 DUP2 SUB PUSH0 DUP4 ADD MSTORE PUSH2 0x34B DUP2 PUSH2 0x312 JUMP JUMPDEST SWAP1 POP SWAP2 SWAP1 POP JUMP INVALID LOG2 PUSH5 0x6970667358 0x22 SLT KECCAK256 BASEFEE 0x1F PUSH8 0x94E35B147373DB03 0xD6 LOG0 PUSH23 0x7A28E9A625444658C2759956CD2109C1D8C064736F6C63 NUMBER STOP ADDMOD AND STOP CALLER "
				},
				"gasEstimates": {
					"creation": {
						"codeDepositCost": "180800",
						"executionCost": "224",
						"totalCost": "181024"
					},
					"external": {
						"testAssert(uint256)": "449",
						"testCustomError(uint256)": "infinite",
						"testRequire(uint256)": "750",
						"testRevert(uint256)": "684"
					}
				},
				"methodIdentifiers": {
					"testAssert(uint256)": "246ce3f9",
					"testCustomError(uint256)": "75f7286c",
					"testRequire(uint256)": "b8bd717f",
					"testRevert(uint256)": "20987767"
				}
			},
			"storageLayout": {
				"storage": [],
				"types": null
			},
			"userdoc": {
				"kind": "user",
				"methods": {},
				"version": 1
			}
		}
	}
}