{
	"data": {
		"bytecode": {
			"linkReferences": {},
			"object": "608060405234801561000f575f80fd5b506104188061001d5f395ff3fe608060405234801561000f575f80fd5b5060043610610055575f3560e01c80631990532b1461005957806345f907a814610077578063688734401461009757806371e5ee5f146100b957806386887544146100e9575b5f80fd5b610061610109565b60405161006e91906102a1565b60405180910390f35b61007f61015e565b60405161008e939291906102ea565b60405180910390f35b61009f610171565b6040516100b095949392919061031f565b60405180910390f35b6100d360048036038101906100ce919061039e565b6101af565b6040516100e091906103c9565b60405180910390f35b6100f16101ce565b604051610100939291906102ea565b60405180910390f35b60605f80548060200260200160405190810160405280929190818152602001828054801561015457602002820191905f5260205f20905b815481526020019060010190808311610140575b5050505050905090565b5f805f6001806016925092509250909192565b5f805f805f805f806101816101ce565b9250925092505f80600460056006925050915084848484849950995099509950995050505050509091929394565b5f81815481106101bd575f80fd5b905f5260205f20015f915090505481565b5f805f6001806016925092509250909192565b5f81519050919050565b5f82825260208201905092915050565b5f819050602082019050919050565b5f819050919050565b61021c8161020a565b82525050565b5f61022d8383610213565b60208301905092915050565b5f602082019050919050565b5f61024f826101e1565b61025981856101eb565b9350610264836101fb565b805f5b8381101561029457815161027b8882610222565b975061028683610239565b925050600181019050610267565b5085935050505092915050565b5f6020820190508181035f8301526102b98184610245565b905092915050565b6102ca8161020a565b82525050565b5f8115159050919050565b6102e4816102d0565b82525050565b5f6060820190506102fd5f8301866102c1565b61030a60208301856102db565b61031760408301846102c1565b949350505050565b5f60a0820190506103325f8301886102c1565b61033f60208301876102db565b61034c60408301866102c1565b61035960608301856102c1565b61036660808301846102c1565b9695505050505050565b5f80fd5b61037d8161020a565b8114610387575f80fd5b50565b5f8135905061039881610374565b92915050565b5f602082840312156103b3576103b2610370565b5b5f6103c08482850161038a565b91505092915050565b5f6020820190506103dc5f8301846102c1565b9291505056fea2646970667358221220c78f611270f984d703d0e1578a896cdf4a2e9ff92df6a27534d3461367f453d464736f6c63430008160033",
			"opcodes": "PUSH1 0x80 PUSH1 0x40 MSTORE CALLVALUE DUP1 ISZERO PUSH2 0xF JUMPI PUSH0 DUP1 REVERT JUMPDEST POP PUSH2 0x418 DUP1 PUSH2 0x1D PUSH0 CODECOPY PUSH0 RETURN INVALID PUSH1 0x80 PUSH1 0x40 MSTORE CALLVALUE DUP1 ISZERO PUSH2 0xF JUMPI PUSH0 DUP1 REVERT JUMPDEST POP PUSH1 0x4 CALLDATASIZE LT PUSH2 0x55 JUMPI PUSH0 CALLDATALOAD PUSH1 0xE0 SHR DUP1 PUSH4 0x1990532B EQ PUSH2 0x59 JUMPI DUP1 PUSH4 0x45F907A8 EQ PUSH2 0x77 JUMPI DUP1 PUSH4 0x68873440 EQ PUSH2 0x97 JUMPI DUP1 PUSH4 0x71E5EE5F EQ PUSH2 0xB9 JUMPI DUP1 PUSH4 0x86887544 EQ PUSH2 0xE9 JUMPI JUMPDEST PUSH0 DUP1 REVERT JUMPDEST PUSH2 0x61 PUSH2 0x109 JUMP JUMPDEST PUSH1 0x40 MLOAD PUSH2 0x6E SWAP2 SWAP1 PUSH2 0x2A1 JUMP JUMPDEST PUSH1 0x40 MLOAD DUP1 SWAP2 SUB SWAP1 RETURN JUMPDEST PUSH2 0x7F PUSH2 0x15E JUMP JUMPDEST PUSH1 0x40 MLOAD PUSH2 0x8E SWAP4 SWAP3 SWAP2 SWAP1 PUSH2 0x2EA JUMP JUMPDEST PUSH1 0x40 MLOAD DUP1 SWAP2 SUB SWAP1 RETURN JUMPDEST PUSH2 0x9F PUSH2 0x171 JUMP JUMPDEST PUSH1 0x40 MLOAD PUSH2 0xB0 SWAP6 SWAP5 SWAP4 SWAP3 SWAP2 SWAP1 PUSH2 0x31F JUMP JUMPDEST PUSH1 0x40 MLOAD DUP1 SWAP2 SUB SWAP1 RETURN JUMPDEST PUSH2 0xD3 PUSH1 0x4 DUP1 CALLDATASIZE SUB DUP2 ADD SWAP1 PUSH2 0xCE SWAP2 SWAP1 PUSH2 0x39E JUMP JUMPDEST PUSH2 0x1AF JUMP JUMPDEST PUSH1 0x40 MLOAD PUSH2 0xE0 SWAP2 SWAP1 PUSH2 0x3C9 JUMP JUMPDEST PUSH1 0x40 MLOAD DUP1 SWAP2 SUB SWAP1 RETURN JUMPDEST PUSH2 0xF1 PUSH2 0x1CE JUMP JUMPDEST PUSH1 0x40 MLOAD PUSH2 0x100 SWAP4 SWAP3 SWAP2 SWAP1 PUSH2 0x2EA JUMP JUMPDEST PUSH1 0x40 MLOAD DUP1 SWAP2 SUB SWAP1 RETURN JUMPDEST PUSH1 0x60 PUSH0 DUP1 SLOAD DUP1 PUSH1 0x20 MUL PUSH1 0x20 ADD PUSH1 0x40 MLOAD SWAP1 DUP2 ADD PUSH1 0x40 MSTORE DUP1 SWAP3 SWAP2 SWAP1 DUP2 DUP2 MSTORE PUSH1 0x20 ADD DUP3 DUP1 SLOAD DUP1 ISZERO PUSH2 0x154 JUMPI PUSH1 0x20 MUL DUP3 ADD SWAP2 SWAP1 PUSH0 MSTORE PUSH1 0x20 PUSH0 KECCAK256 SWAP1 JUMPDEST DUP2 SLOAD DUP2 MSTORE PUSH1 0x20 ADD SWAP1 PUSH1 0x1 ADD SWAP1 DUP1 DUP4 GT PUSH2 0x140 JUMPI JUMPDEST POP POP POP POP POP SWAP1 POP SWAP1 JUMP JUMPDEST PUSH0 DUP1 PUSH0 PUSH1 0x1 DUP1 PUSH1 0x16 SWAP3 POP SWAP3 POP SWAP3 POP SWAP1 SWAP2 SWAP3 JUMP JUMPDEST PUSH0 DUP1 PUSH0 DUP1 PUSH0 DUP1 PUSH0 DUP1 PUSH2 0x181 PUSH2 0x1CE JUMP JUMPDEST SWAP3 POP SWAP3 POP SWAP3 POP PUSH0 DUP1 PUSH1 0x4 PUSH1 0x5 PUSH1 0x6 SWAP3 POP POP SWAP2 POP DUP5 DUP5 DUP5 DUP5 DUP5 SWAP10 POP SWAP10 POP SWAP10 POP SWAP10 POP SWAP10 POP POP POP POP POP POP SWAP1 SWAP2 SWAP3 SWAP4 SWAP5 JUMP JUMPDEST PUSH0 DUP2 DUP2 SLOAD DUP2 LT PUSH2 0x1BD JUMPI PUSH0 DUP1 REVERT JUMPDEST SWAP1 PUSH0 MSTORE PUSH1 0x20 PUSH0 KECCAK256 ADD PUSH0 SWAP2 POP SWAP1 POP SLOAD DUP2 JUMP JUMPDEST PUSH0 DUP1 PUSH0 PUSH1 0x1 DUP1 PUSH1 0x16 SWAP3 POP SWAP3 POP SWAP3 POP SWAP1 SWAP2 SWAP3 JUMP JUMPDEST PUSH0 DUP2 MLOAD SWAP1 POP SWAP2 SWAP1 POP JUMP JUMPDEST PUSH0 DUP3 DUP3 MSTORE PUSH1 0x20 DUP3 ADD SWAP1 POP SWAP3 SWAP2 POP POP JUMP JUMPDEST PUSH0 DUP2 SWAP1 POP PUSH1 0x20 DUP3 ADD SWAP1 POP SWAP2 SWAP1 POP JUMP JUMPDEST PUSH0 DUP2 SWAP1 POP SWAP2 SWAP1 POP JUMP JUMPDEST PUSH2 0x21C DUP2 PUSH2 0x20A JUMP JUMPDEST DUP3 MSTORE POP POP JUMP JUMPDEST PUSH0 PUSH2 0x22D DUP4 DUP4 PUSH2 0x213 JUMP JUMPDEST PUSH1 0x20 DUP4 ADD SWAP1 POP SWAP3 SWAP2 POP POP JUMP JUMPDEST PUSH0 PUSH1 0x20 DUP3 ADD SWAP1 POP SWAP2 SWAP1 POP JUMP JUMPDEST PUSH0 PUSH2 0x24F DUP3 PUSH2 0x1E1 JUMP JUMPDEST PUSH2 0x259 DUP2 DUP6 PUSH2 0x1EB JUMP JUMPDEST SWAP4 POP PUSH2 0x264 DUP4 PUSH2 0x1FB JUMP JUMPDEST DUP1 PUSH0 JUMPDEST DUP4 DUP2 LT ISZERO PUSH2 0x294 JUMPI DUP2 MLOAD PUSH2 0x27B DUP9 DUP3 PUSH2 0x222 JUMP JUMPDEST SWAP8 POP PUSH2 0x286 DUP4 PUSH2 0x239 JUMP JUMPDEST SWAP3 POP POP PUSH1 0x1 DUP2 ADD SWAP1 POP PUSH2 0x267 JUMP JUMPDEST POP DUP6 SWAP4 POP POP POP POP SWAP3 SWAP2 POP POP JUMP JUMPDEST PUSH0 PUSH1 0x20 DUP3 ADD SWAP1 POP DUP2 DUP2 SUB PUSH0 DUP4 ADD MSTORE PUSH2 0x2B9 DUP2 DUP5 PUSH2 0x245 JUMP JUMPDEST SWAP1 POP SWAP3 SWAP2 POP POP JUMP JUMPDEST PUSH2 0x2CA DUP2 PUSH2 0x20A JUMP JUMPDEST DUP3 MSTORE POP POP JUMP JUMPDEST PUSH0 DUP2 ISZERO ISZERO SWAP1 POP SWAP2 SWAP1 POP JUMP JUMPDEST PUSH2 0x2E4 DUP2 PUSH2 0x2D0 JUMP JUMPDEST DUP3 MSTORE POP POP JUMP JUMPDEST PUSH0 PUSH1 0x60 DUP3 ADD SWAP1 POP PUSH2 0x2FD PUSH0 DUP4 ADD DUP7 PUSH2 0x2C1 JUMP JUMPDEST PUSH2 0x30A PUSH1 0x20 DUP4 ADD DUP6 PUSH2 0x2DB JUMP JUMPDEST PUSH2 0x317 PUSH1 0x40 DUP4 ADD DUP5 PUSH2 0x2C1 JUMP JUMPDEST SWAP5 SWAP4 POP POP POP POP JUMP JUMPDEST PUSH0 PUSH1 0xA0 DUP3 ADD SWAP1 POP PUSH2 0x332 PUSH0 DUP4 ADD DUP9 PUSH2 0x2C1 JUMP JUMPDEST PUSH2 0x33F PUSH1 0x20 DUP4 ADD DUP8 PUSH2 0x2DB JUMP JUMPDEST PUSH2 0x34C PUSH1 0x40 DUP4 ADD DUP7 PUSH2 0x2C1 JUMP JUMPDEST PUSH2 0x359 PUSH1 0x60 DUP4 ADD DUP6 PUSH2 0x2C1 JUMP JUMPDEST PUSH2 0x366 PUSH1 0x80 DUP4 ADD DUP5 PUSH2 0x2C1 JUMP JUMPDEST SWAP7 SWAP6 POP POP POP POP POP POP JUMP JUMPDEST PUSH0 DUP1 REVERT JUMPDEST PUSH2 0x37D DUP2 PUSH2 0x20A JUMP JUMPDEST DUP2 EQ PUSH2 0x387 JUMPI PUSH0 DUP1 REVERT JUMPDEST POP JUMP JUMPDEST PUSH0 DUP2 CALLDATALOAD SWAP1 POP PUSH2 0x398 DUP2 PUSH2 0x374 JUMP JUMPDEST SWAP3 SWAP2 POP POP JUMP JUMPDEST PUSH0 PUSH1 0x20 DUP3 DUP5 SUB SLT ISZERO PUSH2 0x3B3 JUMPI PUSH2 0x3B2 PUSH2 0x370 JUMP JUMPDEST JUMPDEST PUSH0 PUSH2 0x3C0 DUP5 DUP3 DUP6 ADD PUSH2 0x38A JUMP JUMPDEST SWAP2 POP POP SWAP3 SWAP2 POP POP JUMP JUMPDEST PUSH0 PUSH1 0x20 DUP3 ADD SWAP1 POP PUSH2 0x3DC PUSH0 DUP4 ADD DUP5 PUSH2 0x2C1 JUMP JUMPDEST SWAP3 SWAP2 POP POP JUMP INVALID LOG2 PUSH5 0x6970667358 0x22 SLT KECCAK256 0xC7 DUP16 PUSH2 0x1270 0xF9 DUP5 0xD7 SUB 0xD0 0xE1 JUMPI DUP11 DUP10 PUSH13 0xDF4A2E9FF92DF6A27534D34613 PUSH8 0xF453D464736F6C63 NUMBER STOP ADDMOD AND STOP CALLER "
		},
		"gasEstimates": {
			"creation": {
				"codeDepositCost": "209600",
				"executionCost": "249",
				"totalCost": "209849"
			},
			"external": {
				"arr(uint256)": "infinite",
				"arrayOutput()": "infinite",
				"destructuringAssignments()": "infinite",
				"named()": "infinite",
				"returnMany()": "infinite"
			}
		},
		"methodIdentifiers": {
			"arr(uint256)": "71e5ee5f",
			"arrayOutput()": "1990532b",
			"destructuringAssignments()": "68873440",
			"named()": "45f907a8",
			"returnMany()": "86887544"
		}
	},
	"abi": [
		{
			"inputs": [
				{
					"internalType": "uint256",
					"name": "",
					"type": "uint256"
				}
			],
			"name": "arr",
			"outputs": [
				{
					"internalType": "uint256",
					"name": "",
					"type": "uint256"
				}
			],
			"stateMutability": "view",
			"type": "function"
		},
		{
			"inputs": [],
			"name": "arrayOutput",
			"outputs": [
				{
					"internalType": "uint256[]",
					"name": "",
					"type": "uint256[]"
				}
			],
			"stateMutability": "view",
			"type": "function"
		},
		{
			"inputs": [],
			"name": "destructuringAssignments",
			"outputs": [
				{
					"internalType": "uint256",
					"name": "",
					"type": "uint256"
				},
				{
					"internalType": "bool",
					"name": "",
					"type": "bool"
				},
				{
					"internalType": "uint256",
					"name": "",
					"type": "uint256"
				},
				{
					"internalType": "uint256",
					"name": "",
					"type": "uint256"
				},
				{
					"internalType": "uint256",
					"name": "",
					"type": "uint256"
				}
			],
			"stateMutability": "pure",
			"type": "function"
		},
		{
			"inputs": [],
			"name": "named",
			"outputs": [
				{
					"internalType": "uint256",
					"name": "",
					"type": "uint256"
				},
				{
					"internalType": "bool",
					"name": "",
					"type": "bool"
				},
				{
					"internalType": "uint256",
					"name": "",
					"type": "uint256"
				}
			],
			"stateMutability": "pure",
			"type": "function"
		},
		{
			"inputs": [],
			"name": "returnMany",
			"outputs": [
				{
					"internalType": "uint256",
					"name": "",
					"type": "uint256"
				},
				{
					"internalType": "bool",
					"name": "",
					"type": "bool"
				},
				{
					"internalType": "uint256",
					"name": "",
					"type": "uint256"
				}
			],
			"stateMutability": "pure",
			"type": "function"
		}
	]
}